S01F000062696E2F6F70656E626C745F53544D33324630373078422E737265635A
S315080000000040002099010008E3010008E501000806
S3150800001000000000000000000000000000000000D2
S31508000020000000000000000000000000E7010008D2
S315080000300000000000000000E9010008EB010008CC
S31508000040EF010008F1010008F3010008F5010008B6
S31508000050F7010008F9010008FB010008FD01000886
S31508000060FF01000801020008030200080502000853
S3150800007007020008090200080B0200080D02000822
S315080000800F020008110200081302000815020008F2
S3150800009017020008190200081B0200081D020008C2
S315080000A01F02000821020008230200082502000892
S315080000B027020008290200082B0200082D02000862
S315080000C010B5064C2378002B07D1054B002B02D020
S315080000D0044800E000BF0123237010BD2C01002056
S315080000E000000000BC050008084B10B5002B03D023
S315080000F00749084800E000BF07480368002B00D1FD
S3150800010010BD064B002BFBD09847F9E7000000000E
S3150800011030010020BC05000828010020000000006E
S31508000120164B002B00D1144B9D46402292029A1A78
S31508000130924600218B460F461348144A121A00F0BD
S3150800014027FA0F4B002B00D098470E4B002B00D0F8
S3150800015098470020002104000D000D48002802D011
S315080001600C4800E000BF00F0EFF92000290000F07D
S3150800017041F900F0D3F9C04600000800004000200D
S3150800018000000000000000002C0100205C05002093
S3150800019000000000000000000749084A084B9B1AA7
S315080001A005DD00240859105104349C42FADB054841
S315080001B08047054800470000C8050008C000002021
S315080001C02C010020E9020008210100081849194AF3
S315080001D0002301E00B6004319142FBD300F00AF9D9
S315080001E0FEE7FEE7FEE7FEE7FEE7FEE7FEE7FEE7D9
S315080001F0FEE7FEE7FEE7FEE7FEE7FEE7FEE7FEE7C9
S31508000200FEE7FEE7FEE7FEE7FEE7FEE7FEE7FEE7B8
S31508000210FEE7FEE7FEE7FEE7FEE7FEE7FEE7FEE7A8
S31508000220FEE7FEE7FEE7FEE7FEE7FEE7FEE7FEE798
S315080002302C0100205C05002010B5642000F006F8AB
S3150800024010BD10B500F008F810BD0000014B18806D
S315080002507047C0464801002010B500F053F9104B0E
S315080002601B68984212D30F4B1B78002B0FD1012223
S315080002700C4B1A7020219020C00500F017F800F0EA
S3150800028041F9094B1B881818054B186010BD002248
S31508000290044B1A7020219020C00500F009F8EEE7FB
S315080002A04C0100204A010020480100208161704766
S315080002B001857047002904D1044A936983439361F1
S315080002C07047024A936918439061F9E700100240A3
S315080002D0034A136803218B43184310607047C046CE
S315080002E000000140FEE7000082B03A4B1A6801217F
S315080002F00A431A605A68384802405A601A683748EA
S3150800030002401A601A68364802401A605A68354828
S3150800031002405A60DA6A0F208243DA621A6B324860
S3150800032002401A635A6B8A435A6300229A60009203
S3150800033001921968802252020A431A601900802223
S315080003409202A020C0010B6813400193009B013361
S315080003500093019B002B02D1009B8342F3D11D4BD6
S315080003601B689B0306D501230193019B012B04D02F
S3150800037002B0704700230193F7E711221B4B1A605E
S31508000380144B5A685A605A685A605A6818490A409B
S315080003905A605968882252030A435A6019688022AB
S315080003A052040A431A601900802292040B68134209
S315080003B0FCD0084B5A6803218A435A605A680139A7
S315080003C00A435A6019000C224B681340082BFBD1CC
S315080003D0CEE7C046001002400CB8FFF8FFFFF6FE55
S315080003E0FFFFFBFFFFFFC0FFACFEFFFF0020024040
S315080003F0FF7FC0FF10B500F01FF800F015F800F0F9
S315080004005BF800F055F800F07DF8040000F07AF883
S31508000410001B7B2804D800F075F8001B7B28FAD946
S3150800042000F020F8002010BD10B5FFF705FF10BD3D
S3150800043010B5FFF706FF10BD10B500F06BF810BD3C
S3150800044070B5551EADB2002A0AD06D1801350C00DC
S31508000450461A23783355FFF7EBFF0134AC42F8D13F
S3150800046070BD000010B500F039F801210120FFF732
S3150800047021FFC022064980208005FFF7E1FF0320FF
S31508000480FFF726FF034B1C6800F046F8A04710BD8F
S31508000490002000080420000801235B42024A13607A
S315080004A0024A13607047C0465001002054030020DA
S315080004B010B5FFF7F1FF10BD054B00221A6005497C
S315080004C059609A6005211960034B1A607047C04647
S315080004D010E000E07FBB0000580500200022014B19
S315080004E01A60704710E000E0044B1B68DB0303D575
S315080004F0034A1368013313607047C04610E000E0F2
S315080005005805002010B5FFF7EFFF014B186810BD1E
S315080005105805002072B6704762B67047084B10B58A
S315080005200400002B02D0002100E000BF054B18682C
S31508000530836A002B00D098472000FFF7D3FEC046F9
S3150800054000000000B805000870B500260C4D0D4CDB
S31508000550641BA410A64209D1002600F021F80A4D12
S315080005600A4C641BA410A64205D170BDB300EB5813
S3150800057098470136EEE7B300EB5898470136F2E79D
S315080005802001002020010020200100202401002055
S3150800059003008218934200D1704719700133F9E7B6
S315080005A0F8B5C046F8BC08BC9E467047F8B5C046C4
S315080005B0F8BC08BC9E467047C0000020000000003A
S30D080005C060FBFF7F010000004B
S315080005C80000000000000000000000000000000015
S315080005D80000000000000000000000000000000005
S315080005E800000000000000000000000000000000F5
S315080005F800000000000000000000000000000000E5
S3150800060800000000000000000000000000000000D4
S3150800061800000000000000000000000000000000C4
S31108000628E9000008C100000800000000FE
S7050800019958
