S01F000062696E2F6F70656E626C745F53544D33324630373078422E737265635A
S315080000000040002099010008E3010008E501000806
S3150800001000000000000000000000000000000000D2
S31508000020000000000000000000000000E7010008D2
S315080000300000000000000000E9010008EB010008CC
S31508000040EF010008F1010008F3010008F5010008B6
S31508000050F7010008F9010008FB010008FD01000886
S31508000060FF01000801020008030200080502000853
S3150800007007020008090200080B0200080D02000822
S315080000800F020008110200081302000815020008F2
S3150800009017020008190200081B0200081D020008C2
S315080000A01F02000821020008230200082502000892
S315080000B027020008290200082B0200082D02000862
S315080000C010B5064C2378002B07D1054B002B02D020
S315080000D0044800E000BF0123237010BD2C01002056
S315080000E00000000044050008084B10B5002B03D09B
S315080000F00749084800E000BF07480368002B00D1FD
S3150800010010BD064B002BFBD09847F9E7000000000E
S3150800011030010020440500082801002000000000E6
S31508000120164B002B00D1144B9D46402292029A1A78
S31508000130924600218B460F461348144A121A00F0BD
S31508000140EBF90F4B002B00D098470E4B002B00D035
S3150800015098470020002104000D000D48002802D011
S315080001600C4800E000BF00F0B3F92000290000F0B9
S3150800017015F900F097F9C046000008000040002075
S3150800018000000000000000002C010020540100209F
S3150800019000000000000000000749084A084B9B1AA7
S315080001A005DD00240859105104349C42FADB054841
S315080001B0804705480047000050050008C000002099
S315080001C02C010020D1020008210100081849194A0B
S315080001D0002301E00B6004319142FBD300F0DEF806
S315080001E0FEE7FEE7FEE7FEE7FEE7FEE7FEE7FEE7D9
S315080001F0FEE7FEE7FEE7FEE7FEE7FEE7FEE7FEE7C9
S31508000200FEE7FEE7FEE7FEE7FEE7FEE7FEE7FEE7B8
S31508000210FEE7FEE7FEE7FEE7FEE7FEE7FEE7FEE7A8
S31508000220FEE7FEE7FEE7FEE7FEE7FEE7FEE7FEE798
S315080002302C0100205401002010B500F001F810BD73
S3150800024010B500F023F9104B1B68984212D30F4BD8
S315080002501B78002B0FD101220C4B1A7020219020FD
S31508000260C00500F017F800F011F9094B1B8818189B
S31508000270054B186010BD0022044B1A7020219020EF
S31508000280C00500F009F8EEE74C0100204A010020FD
S31508000290480100208161704701857047002904D113
S315080002A0044A9369834393617047024A93691843E2
S315080002B09061F9E700100240034A136803218B4353
S315080002C0184310607047C04600000140FEE7000072
S315080002D082B02A4B1A6801210A431A605A682849CB
S315080002E00A405A601A6827490A401A601A68264955
S315080002F00A401A605968254801405960D96A0F2290
S315080003009143D962196B224A11401963596B214AE4
S3150800031011405963002199600091019111311E4ADB
S3150800032011605A685A605A685A605A6B80214902A5
S31508000330114359635A6802405A605968E02292028A
S315080003400A435A601968802252040A431A6019003F
S31508000350802292040B681342FCD0084B5A6803218A
S315080003608A435A605A6801390A435A6019000C22AE
S315080003704B681340082BFBD102B0704700100240AF
S315080003800CB8FF80FFFFF6FEFFFFFBFFFF7FC0FFF5
S31508000390ACFEFFFFFEFFFEFF0020024010B500F096
S315080003A01FF800F04DF800F071F8040000F06EF840
S315080003B0001B752804D800F069F8001B7528FAD9BF
S315080003C0034A044B1A6000F021F8002010BDC0460D
S315080003D0EFBEADDE0004002010B5FFF72DFF10BDFF
S315080003E010B500F05BF810BD70B5551EADB2002A09
S315080003F00AD06D1801350C00461A23783355FFF7D5
S31508000400EBFF0134AC42F8D170BD000010B500F026
S3150800041029F801210120FFF741FFC0220649802063
S315080004208005FFF7E1FF0320FFF746FF034B1C6833
S3150800043000F036F8A04710BD002000080420000888
S31508000440054B00221A60054959609A600521196012
S31508000450034B1A607047C04610E000E07FBB0000FF
S31508000460500100200022014B1A60704710E000E09E
S31508000470044B1B68DB0303D5034A13680133136077
S315080004807047C04610E000E05001002010B5FFF7A5
S31508000490EFFF014B186810BD5001002072B6704777
S315080004A062B67047084B10B50400002B02D0002135
S315080004B000E000BF054B1868836A002B00D09847F8
S315080004C02000FFF703FFC0460000000040050008B3
S315080004D070B500260C4D0D4C641BA410A64209D11C
S315080004E0002600F021F80A4D0A4C641BA410A64207
S315080004F005D170BDB300EB5898470136EEE7B30057
S31508000500EB5898470136F2E7200100202001002029
S31508000510200100202401002003008218934200D104
S31508000520704719700133F9E7F8B5C046F8BC08BC3E
S315080005309E467047F8B5C046F8BC08BC9E4670474C
S30D08000540C000002000000000C5
S30D08000548D8FBFF7F010000004B
S31508000550000000000000000000000000000000008D
S31508000560000000000000000000000000000000007D
S31508000570000000000000000000000000000000006D
S31508000580000000000000000000000000000000005D
S31508000590000000000000000000000000000000004D
S315080005A0000000000000000000000000000000003D
S311080005B0E9000008C10000080000000077
S7050800019958
